:020000040800F2
:1000000020050020D90100081316000881140008FB
:1000100011160008C1020008071B000800000000BC
:10002000000000000000000000000000371600087B
:10003000C302000800000000351600083916000849
:10004000F3010008F3010008F3010008F3010008C0
:10005000F3010008F3010008F3010008F3010008B0
:10006000F3010008F3010008F3010008F3010008A0
:10007000F3010008F3010008F3010008F301000890
:10008000F3010008F3010008F3010008F301000880
:10009000F3010008F3010008F3010008F301000870
:1000A000F3010008F3010008F3010008F301000860
:1000B0003D170008F301000849170008F301000884
:1000C000F3010008F3010008F3010008F301000840
:1000D000F3010008F3010008F3010008F301000830
:1000E000F3010008F3010008F3010008F301000820
:1000F000F3010008F3010008F3010008F301000810
:10010000F3010008F3010008F3010008F3010008FF
:10011000F3010008F3010008F3010008F3010008EF
:10012000F3010008F3010008F3010008F3010008DF
:10013000F30100080000000000000000F3010008C7
:10014000F3010008F3010008F3010008F3010008BF
:10015000F3010008F3010008F3010008F3010008AF
:10016000F3010008F3010008F3010008F30100089F
:10017000F3010008F3010008F3010008000000008B
:1001800000000000F3010008000000000000000073
:10019000F30100080000000000000000F301000867
:1001A000000000000000000000000000F301000853
:1001B000F3010008F3010008F3010008F30100084F
:1001C000F3010008DFF80CD000F068F800480047A1
:1001D000291B0008200500200648804706480047E4
:1001E000FEE7FEE7FEE7FEE7FEE7FEE7FEE7FEE7E7
:1001F000FEE7FEE7E9160008C50100082DE9F05FFB
:100200000546002092469B46884606468146402485
:100210001BE0284641464746224600F02FF8534649
:100220005A46C01A914110D311461846224600F092
:1002300016F82D1A67EB01084F46224601200021CF
:1002400000F00DF817EB00094E41201EA4F1010447
:10025000DFDC484631462A464346BDE8F09F202A67
:1002600004DB203A00FA02F1002070479140C2F10D
:10027000200320FA03F3194390407047202A04DB3F
:10028000203A21FA02F00021704721FA02F3D0400F
:10029000C2F120029140084319467047064C074DB1
:1002A00006E0E06840F0010394E807009847103446
:1002B000AC42F6D3FFF78AFF981B0008B81B000872
:1002C000FEE770472DE9F84FDFF874B100224FF0D8
:1002D00001084FF0030A4FF00F090BF1040E00BFA5
:1002E0000B6808FA02F42340A3426ED14D68022D38
:1002F00001D0122D0ED1D50800EB850CDCF8205072
:100300005607F70E09FA07F6B5430E69BE402E43AD
:10031000CCF82060066855000F790AFA05FC07F052
:10032000030726EA0C06AF40374307604E68012EEC
:1003300005D0022E03D0112E01D0122E0ED18668C8
:10034000CF6826EA0C06AF40374387604668A6436D
:100350000C79C4F30014944034434460C4688E683C
:1003600024EA0C04AE402643C6604C68E40060D525
:10037000344C256845F480452560246822F0030547
:1003800004F480440094304C2E19D6F808489507A0
:100390002F0F09FA07F5AC432C4DA84201D10025D7
:1003A0001FE02B4DA84201D101251AE0294DA8429A
:1003B00001D1022515E0284DA84201D1032510E006
:1003C000264DA84202D104250BE032E0244DA8427C
:1003D00001D1052505E0234DA84201D1062500E005
:1003E0000725BD402543C6F80858DBF800405D46A8
:1003F0004E689C43F60300D51C432C60DEF8004099
:1004000075464E689C43B60300D51C432C600C4DCA
:1004100008352C684E689C43F60200D51C432C60BE
:10042000074D0C352C684E689C43B60200D51C4322
:100430002C60521C102AFFF453AFBDE8F88F000067
:10044000003C0140443802400030014000000240BE
:100450000004024000080240000C0240001002406C
:1004600000140240001802400069084000D001203A
:10047000704700000148806870470000200000209D
:100480000248816802781144816070472000002092
:100490000B4810B5016841F400710160016841F436
:1004A00080610160016841F480710160032000F007
:1004B00097F8002000F006F800F024F8002010BDA6
:1004C000003C024070B50D4D04464FF47A71287817
:1004D000B1FBF0F00A490968B1FBF0F000F029FB2C
:1004E00048B9102C07D200222146501E00F058F8BF
:1004F00000206C6070BD012070BD00002000002055
:100500002C0000201F4808B5016841F480410160BB
:10051000006800F4804000901A48001F016841F014
:1005200080510160006800F080500090072000F0CA
:1005300057F8002211466FF00B0000F031F800224E
:1005400011466FF00A0000F02BF8002211466FF000
:10055000090000F025F800221146501F00F020F895
:1005600000221146101F00F01BF800221146901EB9
:1005700000F016F80022BDE808401146501E00F0B9
:100580000FB800004438024000F01F0201219140E2
:100590004009800000F1E020C0F800117047000021
:1005A000F0B40E4B1B680C46C3F30223C3F10705DE
:1005B000042D00D90425191D072901D2002300E0CC
:1005C000DB1E012606FA05F1491E214099409E4096
:1005D000761E16403143F0BC01F01CB80CED00E073
:1005E000064900F0070208684FF6FF03184040EA8A
:1005F0000220034A10430860704700000CED00E041
:100600000000FA052DE9F0470E46050065D0DFF839
:100610001481D8F80000F7B200F00F00B04207D202
:1006200088F80070D8F8000000F00F00B04254D1F4
:1006300028683D4C810712D5400703D5206840F457
:10064000E05020602878000703D5206840F460401F
:1006500020602068A96820F0F00008432060287816
:10066000C0072DD0304968680839012812D0022807
:1006700013D0032811D00968890700292DDA2168D1
:1006800021F0030101432160FFF7F4FE814641F2AE
:10069000883A0EE009688903EFE709688901ECE709
:1006A000FFF7E8FEA0EB0901514502D90320BDE8A0
:1006B000F0872068696800F00C00B0EB810FEFD183
:1006C000D8F80010404601F00F01B14207D9077079
:1006D000006800F00F00B04201D00120E7E7287861
:1006E000400705D52068E96820F4E0500843206001
:1006F0002878000706D52068296920F4604040EA80
:10070000C100206000F01CF82168084AC1F3031101
:10071000515CC840064908600020FFF7D3FE002066
:10072000C5E70000003C024008380240881B000872
:100730002C00002001480068704700002C000020B9
:10074000224810B5006810F00C02214815D0411065
:10075000042A11D01D4C241F082A0FD00C2A0CD1BA
:100760002268236802F03F025B0221D52068C0F3B3
:100770008810A0FB010120E0084610BD2268236814
:1007800002F03F025B0205D52068C0F38810A0FB91
:10079000010104E02168C1F38811A1FB00010023DD
:1007A000FFF72CFD2168C1F30141491C49000AE013
:1007B0002168C1F38811A1FB00010023FFF71EFD92
:1007C0002168C1F30271B0FBF1F010BD083802409E
:1007D0000024F4002DE9F84F0546DFF828B300782F
:1007E000ABF10407C007A7F1040451D0DBF80010F7
:1007F0005846C1F3810101290FD00168C1F381017D
:10080000022902D13968490207D40068C0F3810087
:10081000032809D13868400206D52068800337D5FF
:100820006868002872D033E06868B0F5803F10D067
:10083000B0F5A02F206810D020F480302060206810
:1008400020F4802020606868A8B1FFF713FE0646F8
:100850000DE0206840F48030F4E740F48020206010
:10086000F7E700BFFFF706FE801B642878D82068F2
:100870008003F7D50CE0FFF7FDFD064605E000BF5D
:10088000FFF7F8FD801B6428F0D820688003F7D4B8
:100890002878DFF8749280074FF0000A46D5DBF81D
:1008A0000010584611F00C0F0FD00168C1F3810100
:1008B000022902D13968490207D50068C0F38100D6
:1008C000032809D13868400206D42068800715D56E
:1008D000E86801281AD111E0E868C0B10120C9F820
:1008E0000000FFF7C7FD064605E000BFFFF7C2FDA9
:1008F000801B0228BAD820688007F7D520682969AC
:1009000020F0F80040EAC10020600FE0F7E0C9F8ED
:1009100000A0FFF7AFFD064605E000BFFFF7AAFD08
:10092000801B02281CD820688007F7D4287800078D
:1009300027D5DFF8D0817548696908F16C0881B165
:1009400001210160FFF796FD064604E0FFF792FDE6
:10095000801B022804D8D8F800008007F6D510E0E4
:1009600089E0C0F800A0FFF785FD064605E000BF5E
:10097000FFF780FD801B02287DD8D8F80000800793
:10098000F6D42878400769D55E484FF00008383023
:100990000068C0000BD45B483830016841F08051DA
:1009A000016000684FF0010800F080500090584E40
:1009B0003068C00511D4306840F480703060FFF7B3
:1009C00059FD009006E000BFFFF754FD0099401A62
:1009D000022850D83068C005F6D54A4EA868683657
:1009E00001280FD00528306810D020F001003060B9
:1009F000306820F004003060A868B8B1FFF73AFD15
:100A000000900FE0306840F00100F4E740F004008F
:100A10003060F7E7FFF72EFD0099411A41F2883068
:100A2000814264D830688007F4D50EE0FFF722FDDC
:100A3000009007E0FFF71EFD0099411A41F288304F
:100A4000814254D830688007F4D4B8F1000F05D043
:100A50002C483830016821F080510160A869A8B3A2
:100A6000DBF80010C1F38101022948D00228C9F83F
:100A700060A005D000E03AE0FFF7FCFC054639E055
:100A8000FFF7F8FC064604E0FFF7F4FC801B0228A1
:100A90002DD820688001F7D4F5E907010843E968FB
:100AA0001C4A490802EB0141AA6841EA8211084345
:100AB000297C40EA0160297D40EA0170386001200C
:100AC000C9F86000FFF7D6FC054606E015E000BF58
:100AD000FFF7D0FC401B022809D820688001F7D519
:100AE0000BE000BFFFF7C6FC401B022802D9032021
:100AF000BDE8F88F20688001F4D40020F8E70120D9
:100B0000F6E700000838024000004742800E4742E6
:100B1000007000400000FFFF4FF0E021042808694A
:100B200003D020F004000861704740F00400FAE7A9
:100B3000704710B5401EB0F1807F01D3012010BD79
:100B40004FF0E02460610F21601700F063FD00208A
:100B5000A06107202061002010BD10B5FFF7E8FF5D
:100B600010BD7047704710B590F83820012A25D085
:100B7000012280F83820CA688C6822F4407222432F
:100B80004C6822F4806222430C6822F40062224303
:100B90000C6922F4805222434C6922F40052224311
:100BA0008C6922F48042224322F40041026800232F
:100BB0002143516480F83830002010BD022010BD60
:100BC00030B590F83820012A20D0012280F8382052
:100BD000022380F8393003685C6824F070045C609C
:100BE00003685C680D682C435C6003689C6824F0B3
:100BF00080049C6003689C6849680C439C6080F892
:100C00003920002180F83810084630BD022030BD60
:100C100010B5040003D094F8390010B107E00120AA
:100C200010BD002084F83800204600F00DF80220A6
:100C300084F83900211D206800F0B0FD012084F8FF
:100C40003900002010BD000008B500680B4988423B
:100C500012D10B48016841F00401016000680222D2
:100C600000F00400009000211E20FFF799FCBDE871
:100C700008401E20FFF788BC08BD000000080040A7
:100C8000403802400168CA6842F00102CA60006848
:100C9000016841F0010101600020704770B5044611
:100CA00090F83800012817D0012584F83850022028
:100CB00084F839002068826822F0770222F47F42AB
:100CC00082600868502837D00DDC202859D005DC18
:100CD00088B3102841D151E0022070BD302853D094
:100CE00040283AD13FE060282ED070280BD0B0F5D4
:100CF000805F03D0B0F5005F2FD110E020688168DD
:100D000021F0070115E0CB68D1E90121206800F04E
:100D1000B0FD2168886840F0770088601DE0CB68EE
:100D2000D1E90121206800F0A4FD2068816841F428
:100D30008041816011E01EE0CA684968206800F0C7
:100D400061FE5021206806E0CA684968206800F00A
:100D5000ADFE6021206800F096FD84F83950002037
:100D600084F8380070BDCA684968206800F04AFEFF
:100D700040212068EFE700212068ECE7102120687F
:100D8000E9E720212068E6E730212068E3E72DE944
:100D9000F0410D46040003D094F8390018B108E082
:100DA0000120BDE8F081002084F83800204600F0E2
:100DB00039F8022084F839002068816821F00701A1
:100DC0008160211D206800F0E9FC2268906891692B
:100DD000166A2B68AF69034340F20330814341EA4E
:100DE0000721A868EF6908434FF6FC418843E9688A
:100DF00040EA0720014328692F6A000140EA0730D2
:100E0000084369686D6926F0AA0646EA0515294374
:100E100093602268906120680162012084F83900A3
:100E20000020BEE700B500680D4987B0884214D1A4
:100E30000C480021026842F002020260006800F0E3
:100E400002000590C02000900220CDE90101CDE90B
:100E5000031069460448FFF735FA07B000BD0000EB
:100E600000040040403802400000024010B5044633
:100E7000006891B1042904D00122002100F0EEFCA9
:100E8000206801225FF0040100F0E8FC206801689E
:100E900041F001010160002010BD01220021F3E7B3
:100EA00070B5054600684FF08044A04238D1287ED6
:100EB000012835D101211D48FFF7D6FA012829D094
:100EC0000021284600F0B9FA19494860226A22F048
:100ED000020222620A228860B0FBF2F000EE100AE1
:100EE000DFED140A4FF4E162B8EE400A81ED050A25
:100EF00060EE200A91ED000AB8EE400A80EE801AFA
:100F0000BCEEC10A10EE100AC860904209D9104622
:100F10000A6107E0206A40F002002062002060625F
:100F200070BD08610449486370BD000000000240C4
:100F3000000000200000E144000001402DE9F041E4
:100F4000044690F838000D4601283DD0012684F86B
:100F50003860022084F83900AAB3042A46D02068F9
:100F6000082A55D0D5E90027E968036A23F480539D
:100F70000362D0F81CC0036A2CF4407C4CEA0727BB
:100F80004FF6FF7C27F470470CEA013139434FF4E8
:100F9000204723F4204307EA02321A43C161026268
:100FA0002068C16921F44061C1612068C169AA68F3
:100FB00041EA0221C0F81C1084F83960002084F84E
:100FC0003800BDE8F08101E00220FAE7D5E900121F
:100FD000EB68206800F028FD2068816921F00C0191
:100FE000816120688169AA6811430FE0D5E9001288
:100FF000EB68206800F06CFD2068816921F4406195
:10100000816120688169AA6841EA02218161D3E790
:10101000D5E9002C2F7B016A21F480710162C1693E
:10102000036A21F0030141EA0C0121F0F00C3907B9
:101030004FF420674CEA116123F4206307EA02228F
:101040001A43C16102622068C16921F00C01C161CB
:101050002068C169AA681143ACE710B5040003D049
:1010600094F8390010B107E0012010BD002084F889
:101070003800204600F00CF8022084F83900211DC9
:10108000206800F08BFB012084F83900002010BD9F
:1010900000B5006887B0B0F1804F1CD10F48002127
:1010A000026842F0010202600068022200F00100C2
:1010B000059001200090CDE90121CDE9031069469A
:1010C0000748FFF7FFF8012200211C20FFF768FA0C
:1010D0001C20FFF759FA07B000BD0000403802405D
:1010E0000000024010B50268044631B1042908D05E
:1010F000082915D00C2908D116E0D06840F002006C
:1011000002E0D06840F00400D0600122206800F0C6
:10111000A5FB2068016841F001010160002010BDBD
:10112000D06840F00800EFE7D06840F01000EBE72F
:1011300070B50446006801694FF00005C94389078E
:1011400015D4C168C943890711D4E91E0161012082
:101150002076206880698007204602D0FFF7A0FE35
:1011600004E000F0B3F8204600F048F92576206846
:101170000169C943490717D4C168C943490713D452
:101180006FF004010161022020762068806910F46C
:10119000407F204602D0FFF783FE04E000F096F87F
:1011A000204600F02BF9257620680169C94309071C
:1011B00016D4C168C943090712D46FF00801016150
:1011C000042020762068C0698007204602D0FFF7FF
:1011D00067FE04E000F07AF8204600F00FF925766B
:1011E00020680169C943C90617D4C168C943C90643
:1011F00013D46FF010010161082020762068C069C7
:1012000010F4407F204602D0FFF74AFE04E000F0D1
:101210005DF8204600F0F2F8257620680169C943A0
:10122000C90708D1C168C943C90704D1891E016132
:10123000204600F001F920680169C943090609D474
:10124000C168C943090605D46FF0800101612046D9
:10125000FFF787FC20680169C943490609D4C168C2
:10126000C943490605D46FF040010161204600F0F2
:1012700006F920680169C94389060BD4C168C943CE
:10128000890607D46FF0200101612046BDE8704057
:10129000FFF768BC70BD000000B50068094985B063
:1012A00088420CD18015009002200021CDE9010177
:1012B00003900120049069460348FFF703F805B046
:1012C00000BD00000000014000000240704770B502
:1012D000044690F838000D4601280DD0012684F808
:1012E0003860022084F8390042B1042A18D0082A54
:1012F0002AD00C2A4DD139E0022070BD206800F0C0
:10130000CBFA2068816941F0080181612068816918
:1013100021F004018161206881692A69114311E08B
:10132000206800F0E5FA2068816941F4006181617C
:101330002068816921F480618161206881692A695E
:1013400041EA0221816124E0206800F003FB20686B
:10135000C16941F00801C1612068C16921F004013F
:10136000C1612068C1692A69114311E0206800F059
:1013700021FB2068C16941F40061C1612068C16935
:1013800021F48061C1612068C1692A6941EA0221B2
:10139000C16184F83960002084F8380070BD10B550
:1013A000040003D094F8390010B107E0012010BD0B
:1013B000002084F83800204600F00CF8022084F861
:1013C0003900211D206800F0E9F9012084F8390076
:1013D000002010BD08B500680649884208D10648BB
:1013E000016841F001010160006800F00100009017
:1013F00008BD000000000140443802407047000072
:1014000010B504460068012200F028FA0849206857
:10141000884202D00749884203D1416C41F400411F
:1014200041642068016841F001010160002010BDA5
:101430000000014000040140704790F8383000225D
:10144000012B0AD0012380F8383041B1042909D09A
:1014500008290AD00C290DD10AE002207047016842
:101460004A6B07E001688A6B04E00168CA6B01E01F
:1014700001680A6C002180F83810104670477047E8
:10148000FEE7000010B5204890B01E49016040F210
:10149000E7310024C0E9011440F20771C0E90314E8
:1014A0004461FFF77CFF00B1FEE70E940EA91648D9
:1014B0000F94FFF785FB00B1FEE7602000904FF42A
:1014C000FA70CDE90104039404940594002269465E
:1014D0000D480694FFF7FBFE00B1FEE70794089461
:1014E00009944FF400500A94CDE90B4007A906482F
:1014F0000D94FFF738FB00B1FEE70348FFF7CCFE81
:1015000010B010BD000001403000002010B514489C
:1015100086B04FF08041016059210024C0E90114D8
:1015200049F63F41C0E90314FFF797FD00B1FEE71C
:10153000049404A90A480594FFF742FB00B1FEE7B2
:101540000120CDE900400F20CDE90240002269468C
:101550000348FFF7F3FC002800D0FEE706B010BDFB
:101560006C00002010B514488CB012490024C0E96A
:1015700000144FF40151C0E9024104610320CDE998
:1015800000040120CDE902040494CDE9054007944C
:10159000694609480894FFF7FAFB00B1FEE7099491
:1015A00009A905480A94FFF70BFB002800D0FEE7C5
:1015B0000CB010BD00040040A800002010B5134876
:1015C00086B01149016042F227310024C0E90114BC
:1015D00042F20F71C0E90314FFF71AFB00B1FEE7F6
:1015E0004FF48050009069460848FFF757FB00B160
:1015F000FEE7049404A905480594FFF7E1FA0028E2
:1016000000D0FEE706B010BD00080040E400002056
:10161000FEE770470907090E002806DA00F00F0000
:1016200000F1E02080F8141D704700F1E02080F800
:10163000001470477047704710B5FEF721FFBDE8F2
:101640001040FFF78ABA000030B5254893B0002556
:10165000016841F080510160006800F080501290F4
:101660002048016821F4404141F480410160006854
:10167000022400F4404012900120039010200490B6
:10168000009406940820CDE907505A20CDE90904BA
:101690000B9468460C94FFF79DF800B1FEE70DA986
:1016A0000F2081E831004FF48050109011900221FA
:1016B0000DA8FEF7A7FF00B1FEE7FFF73BF84FF4D8
:1016C0007A71B0FBF1F0FFF734FA0420FFF724FA47
:1016D00000221146501EFEF763FF13B030BD00001C
:1016E00040380240007000401048016841F4700129
:1016F00001600F48016841F0010101600C4A0021BE
:101700000832116002680B4B1A400260031D0A4A3E
:101710001A60026822F48022026005480C300160E1
:1017200002495806803908607047000088ED00E0E3
:1017300000380240FFFFF6FE103000240148FFF79A
:10174000F7BC00006C00002010B50F48FFF7F0FC5C
:1017500004210E48FFF78AFB0D4803680D4900225B
:1017600023B10368C3F501530B6000E00A60096808
:10177000C1EB0111890000EE101A0749B8EEC00A4A
:1017800081ED000A026010BDE4000020A8000020E6
:10179000240400401C00002018000020F0B502685E
:1017A000234B244D244E254F254C4FF0804C98421E
:1017B00009D0604507D0A84205D0B04203D0B84256
:1017C00001D0A04204D122F0700E4A6842EA0E0213
:1017D00098421BD0604519D0A84217D0B04215D00E
:1017E000B84213D0A04211D0164DA8420ED0164DCB
:1017F000A8420BD0154DA84208D0154DA84205D0DF
:10180000144DA84202D0144DA84203D122F44075D1
:10181000CA682A4302608A68C2620A688262984281
:1018200001D0A04201D10969016301214161F0BDEC
:10183000000001400004004000080040000C00408F
:1018400000040140004001400044014000480140C4
:1018500000180040001C00400020004010B501238B
:10186000046A8B409C430462036A8A401343036208
:1018700010BD10B5846842EA032224F47F440A4371
:101880002243826010BD826822F070020A4342F057
:10189000070181607047000030B5026A22F0010242
:1018A0000262026A436884690D6824F07304254368
:1018B00022F002048A6822430B4CA04202D00B4C57
:1018C000A0420BD122F00804CA6823F440732243DB
:1018D0004C6922F004021C438B69234343608561F9
:1018E00049684163026230BD0000014000040140CC
:1018F00030B5026A22F010020262026A436884690B
:101900000D6824F4E64444EA05248D6822F02002A0
:1019100042EA05120D4DA84202D00D4DA8420ED14B
:10192000CD6822F0800242EA05124D6923F440633B
:1019300043EA85038D6922F0400243EA8503436050
:10194000846149688163026230BD0000000001408B
:101950000004014030B5026A22F480720262036A18
:101960004268C46923F4007324F073050C682C43A7
:101970008D6843EA05230D4DA84202D00C4DA842C4
:101980000ED1CD6823F4006343EA05234D6922F4A8
:10199000405242EA05128D6923F4806342EA05123F
:1019A0004260C4614968C163036230BD0000014008
:1019B0000004014030B5026A22F480520262046AD7
:1019C0004268C3690D6823F4E64343EA05238D6842
:1019D00024F4005444EA0534084DA84202D0084DCE
:1019E000A84204D14D6922F4804242EA8512426045
:1019F000C36149680164046230BD00000000014019
:101A00000004014010B5036A046A24F00104046272
:101A1000846924F0F00444EA021423F00A020A4321
:101A20008461026210BD000070B5046A24F00104F4
:101A300004628469056A164EB04214D0B0F1804F3A
:101A400011D0144EB0420ED0134EB0420BD0134EF4
:101A5000B04208D0124EB04205D0124EB04202D071
:101A6000114EB04203D124F00304144303E024F0E8
:101A7000030242F001041A0724F0F00444EA12625F
:101A800025F00A0301F00A0119438261016270BD69
:101A9000000001400004004000080040000C00402D
:101AA00000040140004001400018004010B5036AE6
:101AB00023F0100303628369046A23F4704343EA4A
:101AC000023224F0A00343EA01118261016210BDD9
:101AD00030B5046A24F0100404628469056A24F4B1
:101AE000407444EA022222F470444FF6FF7202EA84
:101AF00003322243A02425F0A00304EA0111194374
:101B00008261016230BDFEE702E008C8121F08C111
:101B1000002AFAD170477047002001E001C1121F6E
:101B2000002AFBD17047000008B5FEF7B1FCFFF7B3
:101B30008BFD1348016841F080010160016801F0EC
:101B400080010091016841F001010160006800F02E
:101B500001000090FFF7DAFCFFF794FCFFF702FDAD
:101B6000FFF72CFD00210748FFF74AFC054800213C
:101B70003C30FFF7B7FA0348B430FFF783F8FEE7CD
:101B8000303802403000002000000000000000005B
:101B90000102030406070809B81B00080000002022
:101BA00030000000081B0008E81B0008300000207F
:101BB000F0040000181B0008C8000000000000002E
:101BC0000000000000000000000000000000000015
:101BD00000000000000000000100000010000000F4
:081BE000000000000024F400E5
:04000005080001C529
:00000001FF
