:020000040800F2
:10000000001300204D0100086D2600081B1D00088C
:1000100000000000000000000000000000000000E0
:10002000000000000000000000000000E9270008B8
:1000300000000000000000000B010008F527000888
:100040005F0100085F0100085F0100085F01000810
:100050005F0100085F0100085F0100085F01000800
:100060005F0100085F0100085F0100085F010008F0
:100070005F0100085F010008000000005F01000848
:1000800000000000E528000800000000000000005B
:100090005F010008000000005F0100081D1D00084E
:1000A0005F0100085F0100085F0100085F010008B0
:1000B0005F0100085F0100085F0100085F010008A0
:1000C0000348854600F0A0FA00480047593200086E
:1000D00000130020084B19680868203080F3098855
:1000E000022080F31488BFF36F8F3FBCAE4608BC7C
:1000F00004BC62B61847000050000020EFF31080E7
:1001000072B6704780F310887047EFF309800E4B8A
:100110001A6820381060F0C044464D4656465F4687
:10012000F0C008B572B603F0B7FC62B60CBC11683B
:1001300008681030F0C8A046A946B246BB4680F316
:1001400009882038F0C8184750000020044880472C
:1001500004480047FEE7FEE7FEE7FEE7FEE7FEE7AE
:1001600091280008C100000830B50B460146002068
:100170002022012409E00D46D5409D4205D31D46AD
:100180009540491B2546954040191546521E002DA5
:10019000F1DC30BDF0B51FB40646002082B0054644
:1001A0004024019100901BE0019922460F46304601
:1001B00000F0A6F9049A059B801A994110D31046C5
:1001C0001946224600F08CF9361A8F4101972246D3
:1001D00001200021009F00F083F938184D41009064
:1001E0002046641E0028DFDC019B00982946324629
:1001F00007B0F0BD03460B439B0703D009E008C9D5
:10020000121F08C0042AFAD203E00B780370401CC6
:10021000491C521EF9D27047D2B201E00270401C54
:10022000491EFBD270470022F6E710B513460A4676
:1002300004461946FFF7F0FF204610BDF0B507460B
:100240000846584087B0C00F049048000E46590039
:1002500040084908BC1A884105D2384631461E4636
:1002600017460B4602465800400810434CD0300D4C
:10027000039040055900400D490D0590401A029029
:10028000402872DA18030121000B09050843019088
:1002900004980092002805D001995242002088411C
:1002A00000920190029840210A1A0199009800F0EA
:1002B00017F905460C466B4607CB00F032F9C0191A
:1002C0007141039A0E0D0023D71756401A467A4003
:1002D000164344D0049A002A2DD0029A012A039A88
:1002E00015DC1205C01A914101263605001C71412A
:1002F000D20F059ED2070093019202962A4623460A
:1003000000F02FF907B0F0BD38463146FAE7160580
:10031000224A0F46B218C01AB74101210905001C34
:100320004F4100187F41114618187941E20F1043E0
:100330006D19644113E0E2076D0815436408C207B4
:100340001443039A01261205C01A91413605001C78
:100350007141CE07400830434908C01851412A4630
:10036000234600F0F1F8CDE7FFE7049801224000B2
:10037000C117121A00238B4104983146C417381A4A
:10038000A141EEE730B40124E407634030BC55E7F7
:1003900030B40124E407614030BC4FE70000E0FFC7
:1003A000F0B51FB488B00B9909980024484009990A
:1003B000C00F490049080991C0070B9900904900F6
:1003C00049080B9109990898A64608431CD00B9937
:1003D0000A98084318D0099801244000420D4800AB
:1003E000410D099824050003000B204309900B9848
:1003F0000003000B20430B9050181C4940180022AA
:1004000001901446104605E0002001460DB0F0BDF5
:10041000032801DA034600E003239C46C11A0AAE12
:100420000AE05F0008ADED5B4F00F75B7D430027FE
:10043000AA187C41491C5B1E6145F2DD410004ABFA
:100440005A522104120C0A43240C401C0828DFDBFA
:10045000019802900099704601910090059B049AC2
:100460000799069800F07DF8D0E700000DFCFFFF2B
:100470000EB5C217C10F5040CA0740180021054BE6
:100480000293019200910A460B4600F06AF803B00D
:1004900000BD00003304000070B5CD0F4A00090311
:1004A0000123090B1B0519430B4BED070024520DCB
:1004B0009A4201DA002070BD074B34339A4203DCC4
:1004C0009A1A00F01DF802E00449511888402C43A4
:1004D000F1D0404270BD0000FF030000CDFBFFFFE4
:1004E00010B5202A04DB0146203A9140002010BDBF
:1004F000914020239C1A0346E3401943904010BDCD
:1005000010B5202A04DB0846203AD040002110BD57
:100510000B46D340D0402024A21A914008431946EC
:1005200010BD10B5202A06DBCB170846203A104133
:10053000C1170B4306E00B461341D0402024A21AFA
:1005400091400843194610BD10B5002B08DA00246D
:10055000401C614192185B411A4301D140084000A0
:1005600010BDF0B51FB482B005460C0003D008469C
:1005700002F086FC02E002F083FC2030024600908C
:1005800021462846FFF7ACFF049B059A04460F4618
:1005900018431143084314D0184610431BD0009849
:1005A00040210A1A18460599FFF7AAFF05460E468C
:1005B000009A05990498FFF793FF084305D001209E
:1005C00004E02046394607B0F0BD0020C1170543BE
:1005D0000E432C43374300990E986305401A790562
:1005E000E40A00220C43FD0A0A3002D5002001462D
:1005F000E9E70105101969410C9C0D9D001969413D
:10060000FFF7A2FFDFE70000064C0125064E05E0DC
:10061000E36807CC2B430C3C98471034B442F7D323
:10062000FFF752FD6C4200088C42000870B50024B0
:10063000014620314A79022A03D00421C1630124F2
:1006400018E0026813680E25AB4313600268136854
:100650005B085B001360436C1C22134001221546AB
:100660009D40036C5D604A7100220A71816B002914
:1006700000D08847204670BDF8B500230124A2E0D1
:1006800027469F403A4070D04D68022D01D0122D70
:1006900014D1DD08AD002D1800952D6A5E07AC461B
:1006A000F50E0F26AE46AE406546B543AC460E6924
:1006B0007546AE4065462E43009D2E624D68012D65
:1006C00005D0022D03D0112D01D0122D16D1856831
:1006D0000326AC465D00AE46AE406546B543AC462B
:1006E000CE687546AE4065462E43866046680D79F5
:1006F000BE43ED06ED0F9D403543456006685F0043
:100700000325BD40AE46AE430D79B446AE07B60FE5
:10071000BE4065462E430660C6687546AE438D688A
:10072000BD403543C5604D68ED004BD5294D6E6B1E
:1007300026436E639E08284DB6007519AC46AD6819
:100740009E07360F0F27B740BD4305273F07B84226
:1007500001D1002715E0214FB84201D1012710E057
:100760001F4FB84202D102270BE02BE01D4FB842C9
:1007700001D1032705E01C4FB84201D1052700E055
:100780000627B7402F436546AF60184D2E684F6867
:100790009643FF0300D516432E606E684F6896435C
:1007A000BF0300D516436E60AE684F689643FF02E4
:1007B00000D51643AE60EE684F689643BF0200D581
:1007C0001643EE605B1C0A681546DD4000D057E713
:1007D000F8BD00000010024000000140000400507D
:1007E00000080050000C0050001C005000040140A4
:1007F00042694A4042617047002A01D081617047D6
:10080000816270470148006870470000480000207E
:1008100070B5024640325378202B1CD11378012B3F
:1008200019D00123137024245470046825689D4353
:100830002560046825681E03B543256004682568A3
:100840000D43256000680168194301602020507045
:100850000020107070BD022070BD70B5024640329D
:100860005378202B1BD11378012B18D0012414703E
:100870002423537003681D68A5431D6005682B6819
:100880000F263602B3430902194329600068016844
:1008900021430160202050700020107070BD0220A4
:1008A00070BD7047704770B503689A691968D24384
:1008B000D40508D4CC43240605D4446C01252C432C
:1008C00044642C02DC61530509D4CB431B0606D4D7
:1008D000436C082423434364E3010468E361920505
:1008E00009D4C943090606D4416C0222114341646C
:1008F00011020268D161416C0B22114201D001F05A
:10090000A9FA70BD026891691268436B002B00D090
:10091000184770477047000070B5040006D02546A0
:10092000403568780026002802D005E0012070BD1F
:100930002E70204600F00EFA2420687020680168AE
:100940004908490001600F21606809068843216851
:10095000086121688A680120C00382438A60E168D7
:100960000129A16808D021229202114322689160D6
:10097000E168022902D005E00143F7E7012122687E
:10098000C902516021684A680F4B1A434A602168C6
:10099000CA688243CA60616920690843A169090283
:1009A00008432168C860216AE0690843216808603B
:1009B000206801680122114301606664202068708C
:1009C0002663AE70002070BD00800002FFB50446B3
:1009D000002083B02546403501906A78202A74D1E2
:1009E00022689269D24312047BD52A78012A78D0F2
:1009F00001222A7024226A7060648F05BF0DE068AE
:100A000001280BD00520C002012138188902884333
:100A100021684860FFF7F6FE06460CE03248F3E72F
:100A20000698401C07D0FFF7EDFE811B0698814217
:100A300019D8002817D02168886989698006C00FF5
:100A4000C906C90F0843EBD020688069069BC043E4
:100A5000C006009617D500222021204601F046FC52
:100A6000002830D107E020206870616C0143616488
:100A70000020287027E021682020C86168700020CD
:100A8000287007B0F0BD00222021204601F02EFC86
:100A9000002818D121681020C86121682020C86171
:100AA00001990598814214D120684168012292037E
:100AB000114341600096002220212046069B01F050
:100AC00015FC002802D00120DBE70AE02168202085
:100AD000C8610198401C01460190059881428ED35F
:100AE000C1E70220CDE700000020000270470000AF
:100AF000FFB5054604464035687881B0202878D196
:100B00002878012875D001202870FFF77BFE074662
:100B1000012200901923D103204601F0E7FB0028B1
:100B20003CD1212068701020A870002666640398CC
:100B30006062049860856663618D2F48FF2903D940
:100B4000FF22228500903BE0618D218500903DE0F1
:100B50002046029901F0B6FB16E001F014FC0028D3
:100B60001CD1606A216800788862606A401C6062FB
:100B7000608D401E6085208D401E80B22085618D75
:100B8000002901D000280CD0608D0A9900283A462F
:100B90002046E2D101F0D1FB00281CD0012005B095
:100BA000F0BD00970022802120460A9B01F09EFBA9
:100BB0000028F3D1608DFF2805D9FF2222850096F9
:100BC00001231B06C4E7608D20850096208D01233C
:100BD000C2B25B06BCE721682020C86121684A6870
:100BE000064B1A404A606870AE702E700020D6E73F
:100BF000FFE70220D3E700000020008000E800FEAD
:100C0000FFB5054604464035687883B0202875D185
:100C10000C98002814D00D98002811D028780128AD
:100C20006CD001202870FFF7EDFD074601220090EF
:100C30001923D103204601F059FB002874D103E0A9
:100C40000120400260646FE0222068704020A8709C
:100C5000002666640C9860620D98608566630E9845
:100C60000090019704A90EC9204601F065FA0028FA
:100C700001D02E7058E0618D3448FF2905D9FF223C
:100C8000228501231B06009006E0618D21850090DE
:100C9000208D0123C2B25B062046049901F012FBAD
:100CA00000970022042120460E9B01F01FFB002824
:100CB0003AD12068406A616A0870606A401C6062CC
:100CC000208D401E81B22185608D401E6085608D23
:100CD00000281FD000291DD1009700228021204626
:100CE0000E9B01F003FB00281ED1608DFF2806D962
:100CF000FF22228501231B06009607E024E0608D79
:100D000020850096208D0123C2B25B0620460499FF
:100D100001F0D8FA608D0028C2D13A4620460E99DB
:100D200001F00BFB002802D0012007B0F0BD2068C5
:100D30002021C16120684268054B1A4042606970F9
:100D4000AE702E700020F0E70220EEE70024008055
:100D500000E800FE10B586B0044614216846FFF78F
:100D600062FA15492068884223D1144CE16A0220B6
:100D70000143E162E16A0140032005910002009015
:100D80001220019000200290032003900420049080
:100D900069460B48FFF770FCA06B01214905084329
:100DA000A06300220321172000F07EF8172000F036
:100DB00071F806B010BD0000005400400010024061
:100DC000000400507047704702480168491C0160E8
:100DD000704700004800002010B508480024016852
:100DE000402211430160204600F00AF8002801D09B
:100DF000012401E000F03CF8204610BD0020024034
:100E000000B5014687B00022112000F04DF81120F6
:100E100000F040F81148816B10221143816305A94D
:100E2000684600F0C7F900F0E5F90D49FFF79CF9B5
:100E30000D490C4A0A600D4A401ECA6048600020F5
:100E400008618860084600F090FC002802D001206C
:100E500007B000BD044800F0B1FCF9E70010024003
:100E600040420F0000100040D0010020E7030000C6
:100E700010B50748416B012211434163816B0204A5
:100E80001143816303210022481F00F00DF810BDBB
:100E900000100240C106C90E0120884001490860C7
:100EA0007047000000E100E010B501F0E1FB10BD6B
:100EB000F8B504460068614D810601D400057DD572
:100EC0005E4E0027403EB06BC00004D4B06B3104CE
:100ED0000843B06301275A480168C90511D4016865
:100EE000821511430160FFF78DFC009005E0FFF7CC
:100EF00089FC0099401A642844D851480068C0050C
:100F0000F5D5316803200005626801401040884231
:100F100005D10323A0681B051840884208D0900320
:100F2000800F032804D13068800301D50120F8BD6B
:100F3000286903210904084029D00A40824202D0CE
:100F40002278920606D4A2680A4082421FD02088E6
:100F500000051CD528692A6988430121C9040A4370
:100F60002A612A698A432A612861C0050FD5FFF7E3
:100F700049FC009008E0FFF745FC0099411A314810
:100F8000814201D90320F8BD28698005F3D5616845
:100F90008803800F032805D1326800058243014091
:100FA0000A43326028690322616812041140084331
:100FB0002861002F06D0B16B012000E002E000079D
:100FC0008143B1632078C00705D0E868E1688008F4
:100FD00080000843E8602078800705D5E8680C2188
:100FE000884321690843E8602078400706D5E8680F
:100FF00003218902884361690843E860207800077B
:1010000006D5E868032109038843A1690843E8601D
:101010002078400606D5E868012189068843216AC0
:101020000843E8602078000606D5E86803218904B3
:101030008843E1690843E8600020F8BD40100240A1
:101040000070004088130000F8B50E4605007DD002
:1010500053480068C007C00FB0420AD25048016828
:1010600049084900314301600068C007C00FB04221
:1010700071D128784B4C800705D5E068F021884372
:10108000A9680843E0602878C00752D06868022841
:1010900017D0032818D02168012818D08905002905
:1010A00059DAE168890889000143E160FFF7AAFB8A
:1010B00069680746022912D003291CD0012926D0CD
:1010C00033E021688903EAE721688901E7E74907F6
:1010D000E5E7FFF797FBC11B3348814223D8E0685F
:1010E0000007800F0228F4D123E0FFF78BFBC11B20
:1010F0002D48814217D8E0680007800F0328F4D1FB
:1011000017E0FFF77FFBC11B274881420BD8E0683F
:101110000007800F0128F4D10BE0FFF773FBC11B20
:101120002148814201D90320F8BDE0680007800F03
:10113000F3D11B480168C907C90FB1420DD9016835
:101140004908490031430160006800E003E0C0073E
:10115000C00FB04201D00120F8BD2878400706D565
:10116000E068072109028843E9680843E0602878BD
:10117000000707D5E0680721C90288432969C9002B
:101180000843E06000F056F8E168084A0906090FD4
:10119000515CC840064908600020FFF731FEF8BDE9
:1011A000002002400010024088130000284200087E
:1011B0004C00002010B50F2202600C4AD3689B0738
:1011C0009B0F4360D368F02423408360D4680723D7
:1011D0001B021C40C460D268D2081A400261044855
:1011E0000068C007C00F086010BD0000001002407A
:1011F00000200240044805490068C968044A4905BE
:10120000490F515CC84070474C000020001002405C
:1012100041420008044805490068C968044A890435
:10122000490F515CC84070474C000020001002403C
:101230004142000810B5184AD1680C200840042823
:101240000BD0082810D00C2810D050680004410F93
:101250000120C003491C884010BD1068C00601D59C
:101260000E4810BD0E4810BD0E4810BD88020E4B32
:10127000000F185C0902D368890F491CDB0301D5F4
:10128000084A05E01268D20601D5044A00E0044A83
:101290005043FEF769FF10BD0010024000093D00F9
:1012A0000024F40000127A0038420008FEB5050060
:1012B0007ED0FE4CE7680C20E66807400120000461
:1012C00006402878C00747D0082F05D00C2F0AD138
:1012D00001200004864206D1206880033CD568685E
:1012E0000028E5D038E0012069680004814203D17C
:1012F00021680143216011E0052301221B049204AF
:101300009942216802D111432160F1E781432160B4
:10131000216801400091206890432060686800289F
:101320000DD0FFF76FFA009005E0FFF76BFA009918
:10133000401A64287AD820688003F6D50CE0FFF7BD
:1013400061FA009005E0FFF75DFA0099401A642801
:10135000F0D820688003F6D42878800755D5092373
:10136000E868042F0DD00C2F01D1002E09D00028E1
:101370003BD02168994301432160FFF743FA0646B9
:1013800027E02168490701D5002891D061681F2214
:10139000120291432A691202114361602168994344
:1013A00001432160FFF746FFE16809060A0F00E0EC
:1013B000B9E1BF49895CC840BE4908600020FFF719
:1013C0001FFD002872D120E0FFF71CFA801B0228C5
:1013D000B0D820684007F7D560681F21090288430C
:1013E00029690902084360600FE020684008400056
:1013F0002060FFF707FA064604E0FFF703FA801BB8
:10140000022897D820684007F7D42878C0065FD50F
:10141000002F0CD0E869002849D02068FF21013155
:1014200008432060FFF7EEF906462DE0E4E020686F
:10143000800502D5E8690028A7D060680721490324
:101440008843696A084360606068298C0002000A6A
:10145000090608436060686A410B0120C003491C0B
:101460008840E16809060A0F9149895CC8409149A2
:1014700008600020FFF7C4FC002817D128E0FFF720
:10148000C1F9801B0228A3D820688005F7D56068C1
:10149000072149038843696A084360606068298CB2
:1014A0000002000A09060843606011E023E1216898
:1014B000FF20013081432160FFF7A4F9064604E0D4
:1014C000FFF7A0F9801B02289BD820688005F7D47D
:1014D0002878794E000724D568690028306910D033
:1014E000012108433061FFF78DF9009005E0FFF717
:1014F00089F90099401A02287ED830698007F6D50C
:101500000FE0400840003061FFF77CF9009005E0F3
:10151000FFF778F90099401A02286DD830698007E2
:10152000F6D42878400764D500200290A06BC00054
:1015300006D4A06B012109070843A0630120029093
:101540005E480168C90511D4016882151143016024
:10155000FFF758F9009005E0FFF754F90099401A99
:10156000642849D855480068C005F5D5FF20AA6809
:101570000130824203D131690143316111E001211F
:101580008902002A07D005231B029A4203D132693F
:101590000A433261EFE7326982433261306988433E
:1015A0003061A86800280ED0FFF72CF9009006E003
:1015B000FFF728F90099411A414881421CD8306947
:1015C0008005F5D50DE0FFF71DF9009006E0FFF767
:1015D00019F90099411A3A4881420DD830698005BD
:1015E000F5D40298002804D0A16B012000078143A4
:1015F000A1632878800600E07CE02ED53148A969F7
:101600004314002916D0A26801210A43A260626B2C
:101610000A436263016A19430162FFF7F3F8064661
:1016200004E0FFF7EFF8801B022863D8A06880076A
:10163000F7D512E0A16849084900A160016A994301
:101640000162FFF7DFF8064604E0FFF7DBF8801BD6
:1016500002284FD8A0688007F7D4A86A002864D071
:101660000C2F4DD0012636060228206805D0B04345
:101670002060FFF7C7F805463EE0B0432060FFF763
:10168000C1F8074604E0FFF7BDF8C01B022831D8B7
:1016900020688001F7D4296BE86AE2680843696B27
:1016A000FD231B049A43114308430DE00010024040
:1016B000284200084C00002040100240007000400A
:1016C0008813000000000140E06020683043206083
:1016D000FFF798F8054604E0FFF794F8401B02284E
:1016E00008D820688001F7D51FE0FFF78BF8401B72
:1016F000022801D90320FEBD20688001F5D414E042
:10170000E06801210904EA6A014091420BD10F21EE
:1017100089042A6B0140914205D1032189050840C3
:10172000696B884201D00120FEBD0020FEBDF0B5EE
:1017300002462032137E012B15D001271776022393
:10174000537605686C68AB687026B4430E684968C8
:1017500026438024A34319436E6000688160577656
:1017600000201076F0BD0220F0BD70B5040005D059
:1017700025462035687E002802D006E0012070BD95
:1017800000202876204600F00BF802206876211D04
:10179000206801F0AFF801206876002070BD0000DD
:1017A000006801218907884204D10348816B012226
:1017B0001143816370470000001002400268D36843
:1017C00001210B43D360006882685207520F062A3A
:1017D00002D002680A43026000207047F8B505464F
:1017E00004462035287E012817D001262E760220B7
:1017F0006876226890687727FF23B8431B029843D6
:1018000090600A68502A31D00EDC202A4BD006DCCA
:10181000002A48D0102A3AD145E00220F8BD302AEB
:1018200041D0402A33D136E0602A27D0702A12D026
:1018300001200003121A2AD0824228D1CB684A68BC
:101840008968206801F08FF820688168012292037E
:10185000114381601BE0CB684A688968206801F009
:1018600082F8216888683843886010E0CA6849684F
:10187000206801F0F2F85021206806E0CA68496843
:10188000206801F0FBF86021206801F077F86E769F
:1018900000202876F8BDCA684968206801F0DDF8A4
:1018A00040212068F1E711462068EEE7704770B5E7
:1018B0000446006801690025C9438907002915DB32
:1018C000C168C943890711D4E91E0161012020764E
:1018D000206880698007204602D0FFF7E7FF04E018
:1018E00000F0AEF8204600F02FF925762068016957
:1018F000C943490717D4C168C943490713D4042110
:10190000C943016102202076206880698005800F2C
:10191000204602D0FFF7CAFF04E000F091F820460D
:1019200000F012F9257620680169C943090716D429
:10193000C168C943090712D40821C94301610420C1
:1019400020762068C0698007204602D0FFF7AEFFEE
:1019500004E000F075F8204600F0F6F825762068DF
:101960000169C943C90617D4C168C943C90613D45C
:101970001021C9430161082020762068C0698005D4
:10198000800F204602D0FFF791FF04E000F058F8E6
:10199000204600F0D9F8257620680169C943C907B7
:1019A00008D1C168C943C90704D1891E0161204615
:1019B00000F0DEF820680169C943490609D4C1680E
:1019C000C943490605D44021C9430161204600F0BE
:1019D000D9F870BD30B587B0044614216846FEF7CB
:1019E00022FC012120688907884222D11248C16A5D
:1019F00001221143C162C16A11400591C16A0224EA
:101A00002143C162C06A0025204005900320694639
:101A100031C105206946000703950494FEF72CFEAA
:101A2000A002694631C16946044803950494FEF753
:101A300023FE07B030BD000000100240000400503B
:101A40007047F8B5064604462036307E0D4601281C
:101A50000DD001203076022070760427002A08D0AD
:101A6000042A16D0082A2AD00C2A4DD137E00220A9
:101A7000F8BD206800F08AFF2068816908221143C0
:101A8000816120688169B943816120688169EA6860
:101A900012E0206800F092FF206882690121C902EB
:101AA0000A43826120688169012292029143816127
:101AB00020688169EA6812021143816124E020688C
:101AC00000F095FF2068C26908210A43C2612068BE
:101AD000C169B943C1612068C169EA6812E0206840
:101AE00000F0A0FF2068C1690122D2021143C16148
:101AF0002068C269012189028A43C2612068C169E4
:101B0000EA6812021143C16101207076002030762C
:101B1000F8BD70B5040005D025462035687E002844
:101B200002D006E0012070BD00202876204600F09B
:101B30000AF802206876211D206800F0DBFE0120F3
:101B40006876002070BD7047704710B50446006885
:101B5000012200F0FBFE206881684907490F062931
:101B600003D00168012211430160002010BD000074
:101B700010B500680249884201D1FFF725F910BD70
:101B800000100040704710B5040003D0606F0028BB
:101B900002D007E0012010BD002170200155204631
:101BA00000F026F824206067206801684908490091
:101BB0000160204601F00AF80128ECD0606A002894
:101BC00002D0204600F06DFF206841680922D20251
:101BD00091434160206881682A2291438160206896
:101BE0000168012211430160204600F0BFFF10BDD3
:101BF00010B586B0044614216846FEF714FB11495F
:101C0000206888421BD11048816B01225204114385
:101C10008163C16A01221143C162C06A69461040F2
:101C200005900C20009002200190002002900320DB
:101C300003900420049005200007FEF71DFD06B068
:101C400010BD00000044004000100240FFB50446F3
:101C5000406F83B017460D4620285CD1002D0AD076
:101C6000002F08D0A168C001814207D12069002857
:101C700004D1E80702D0012007B0F0BD2046603053
:101C80000290007C012846D00298012101740020B6
:101C9000E06721206067FEF7B5FD264640360190DB
:101CA000378277820120A1680003814202D1206936
:101CB000002802D02F46002511E000270FE0002267
:101CC0008021204601F096F8002815D1002F15D06C
:101CD0002168387888627F1C708A401E7082708A02
:101CE000019B002806980090E9D10022402120465F
:101CF00001F080F8002808D00320BDE7288821687B
:101D0000C005C00D8862AD1CE6E72020606702991F
:101D100000200874B0E70220AEE7FEE710B50648E1
:101D2000006880694005400F034802D0FEF7BBFD04
:101D300010BDFEF7E7FD10BDA800002010B5806AB9
:101D40000021826B9163C26B9163014640314A78F6
:101D5000602A02D0FEF7DEFD10BD20224A70FEF799
:101D6000A0FD10BDF0B503460022CE074033282465
:101D7000B025002E05D05E7842222746B74300D01A
:101D8000F2228E0705D544265B7832439C4300D06F
:101D90002A434B0701D5B8231A4311238B4301D1A2
:101DA00090231A4312238B4301D160210A43006818
:101DB000016891430160F0BD01688A69D2439207CE
:101DC00001D400228A6200688169C943C90703D02F
:101DD00081690122114381617047F8B505460446C7
:101DE0004035687828218143206804D00821C161EA
:101DF00000202870F8BD8169C903CF0F8169FE23D7
:101E00000E0C81681E408A05C168920D19408C46EF
:101E1000E168022916D10621D3090E400B409E42EB
:101E20000FD1A16C491CA164A16C0229E2D100214F
:101E3000A1640823C361297039462046FEF732FDAC
:101E4000F8BD664604212046FFF78CFF002028706D
:101E50003246F1E7F8B50546044640356878002675
:101E6000AE702D4AE2626685626C0A436264202786
:101E7000282823D0292821D02A281FD0072120460E
:101E8000FFF770FF6878602800D06F702663666384
:101E9000206801684A042149026819D501239B037F
:101EA0009A430260A06B002826D081632E70A06B3D
:101EB000FEF7BCFB00281FD0A06B1BE003212046CF
:101EC000FFF750FF28206870266315486063DFE73E
:101ED000120412D502680123DB039A430260E06B0F
:101EE000002809D081632E70E06BFEF79FFB00286D
:101EF00002D0E06B816B8847F8BD6878602804D019
:101F00002E702046FEF706FDF8BD6F702E7020463D
:101F1000FEF7C7FCF8BD00000000FFFF3D1D0008F4
:101F20009921000870B504461648E0620025256333
:101F3000202220464030064642708570C8436563C3
:101F4000400712D420680421406A626A1070606AF7
:101F5000401C6062208D002807D0401E2085608DC7
:101F6000401E6085606C0843606407212046FFF7CF
:101F7000F9FE21681020C86135702046FEF7B6FDD5
:101F800070BD00000000FFFFF8B5044600680F4672
:101F900005682021C16107212046FFF7E3FE206884
:101FA00041680122D2031143416020684168314AEF
:101FB000114041602046FFF7FFFEE843410401D491
:101FC000A06B02E0000405D4E06B002802D000689A
:101FD00040686085F8434007042100280FDB206833
:101FE0008F43406A626A1070606A401C6062208D94
:101FF000002804D0401E2085608D401E6085608DC5
:10200000002802D0606C08436064002626632546E1
:102010004035AE706663606C00280BD0616C204662
:10202000FFF718FF6878282803D139462046FFF7C4
:1020300079FFF8BDE06A104FB8420AD0204600F0A0
:102040001DF8E762202068702E702046FEF74EFDD6
:10205000F8BD6878222806D0202068702E702046AF
:10206000FEF7B1FEF8BD202068702E702046FEF706
:10207000A9FEF8BD00E800FE0000FFFF70B50026D5
:10208000044640340546A6706178282029290ED0E0
:1020900061782A290AD1607022202863022128460B
:1020A000FFF760FE26702846FEF78CFE70BD60705C
:1020B0002120286301212846FFF754FE2670284678
:1020C000FEF781FE70BD0000F7B5044600680E46BD
:1020D0008069C043C0062BD42027254640352068A0
:1020E0008069C043800612D5701CF8D0FEF78AFBC9
:1020F0000299401AB04201D8002EF0D1606C3843EA
:1021000060646F700020A87028700120FEBD2168F7
:102110001020C8612068C7612046FFF74DFE206887
:102120004168044A11404160606C04210843E7E7BC
:102130000020FEBD00E800FEF8B50446164615482E
:102140001D46DAB20090079F0023204600F0BAF83F
:102150003A462046069900F016F9002818D128467C
:10216000F5B2012809D02168300A88623A46204633
:10217000069900F008F900280AD1206885620097C6
:10218000002240212046069B00F0B0F8002800D035
:102190000120F8BD00200080F8B50446C06A16464C
:1021A0000F4625464035297801291CD00121297088
:1021B000F943CA060423F643002A32DBF20630D480
:1021C000628D1021002A10D02268D161616C194300
:1021D0006164002802D09905884266D1616C20466E
:1021E000FFF738FE61E00220F8BD6A78282A08D19E
:1021F00001225206904204D139462046FFF792FE52
:1022000053E06A78292A09D101221204D04205D06C
:102210002068C1612046FFF7CFFD43E02068C1611F
:1022200043E04A071AD4720718D4618D00290DD0F3
:1022300021689F43496A626A1170616A491C616240
:10224000218D491E2185618D491E6185618D002981
:102250002BD101210904C84224D126E00A0706D463
:10226000320704D439462046FFF7B7FD1DE0890741
:102270001BD4B10719D4618D00290DD0606A216883
:1022800000788862606A401C6062608D401E6085D4
:10229000208D401E208508E001210906884201D0DA
:1022A000002802D12046FFF7E9FEF843800605D456
:1022B000B00603D439462046FFF766FE002028709A
:1022C000F8BD0000F0B50668059C7568064F600D06
:1022D000384385438805800D110408431843204383
:1022E00005437560F0BD0000FF63FF03F8B51D46B0
:1022F00017460E46044609E0681C07D0FEF782FA2E
:102300000699401AA8420BD8002D09D0206881698F
:10231000304688430FD00020B842EDD00020F8BDF1
:10232000616C202001436164403460700020A07023
:1023300020700120F8BD0120EEE770B516460D466D
:1023400004460FE0324629462046FFF7BDFE00282E
:1023500001D0012070BDFEF755FA801BA84208D8B5
:10236000002D06D020688069C0438006EAD4002092
:1023700070BD616C202001436164403460700020B6
:10238000A0702070E5E770B516460D46044611E0D2
:10239000324629462046FFF797FE002801D001204B
:1023A00070BD681C06D0FEF72DFA801BA84208D825
:1023B000002D06D020688069C0438007E8D4002043
:1023C00070BD616C20200143616440346070002066
:1023D000A0702070E3E700001FB501F0ABFD3A4E9E
:1023E0000390F71C38480125401C642400902B46BC
:1023F00028223221019502943448FEF701FC012382
:10240000292232213148009601950294FEF7F8FB0B
:1024100001232A2232212D48009701950294FEF7CC
:10242000EFFB29480123801C00902B2232210195CB
:1024300002942648FEF7E4FB23480123401D009048
:102440002C223221019502942048FEF7D9FB204628
:102450001D4C0290241D01232D2232210195009450
:102460001A48FEF7CDFB3078E11E097800020843D8
:10247000251FA881A01E0078397800020843E88152
:102480002078611C097800020843002328821A463C
:102490001946686901F0BBFB1020285E00900E23EE
:1024A0000C22EB5EAA5E0AA10C4800F0D5FC0B4999
:1024B00082B208460A238038FFF7C8FB962103A89A
:1024C00001F036FA8EE7000000000020A80000208E
:1024D00025642C25642C25640A000000B00100202E
:1024E0001CB56A461071517164200090022301AA44
:1024F00032210248FEF7FCFA1CBD0000A8000020B3
:1025000030B587B014216846FDF78DFE1448C26AC5
:1025100004210A43C262C26A0A400592C16A0124C8
:102520002143C162C16A21400591C26A02210A4366
:10253000C262C06A052508402D07059000222021AF
:102540002846FEF759F900212020029103910090BE
:10255000019469462846FEF78FF807B030BD0000A9
:102560000010024010B50D480B4901600C49416054
:10257000002181600161416181610122C161C2600C
:102580000162FEF7C9F900210448FEF741F9002174
:102590000248FEF762F910BD00540040A800002078
:1025A000380F300010B58AB00024049405940694C6
:1025B0000794089401211F480994009401940294FF
:1025C000890703940160FF214031846041601A490A
:1025D0000461C16080214161FFF7C7F80120000359
:1025E000049004A91348FFF7F9F81248FFF791FA8D
:1025F000089408A90F480994FFF799F86020009003
:10260000C820019002940022694603940948FFF70C
:1026100018FA0422694607480194FFF712FA0C22BF
:1026200069460448FFF70DFA0248FFF7D3F90AB0EC
:1026300010BD0000F4000020CF07000010B50A48CC
:1026400008490160E1214902416000218160C160C7
:1026500001618161C1610C22016242614162FFF747
:1026600092FA10BD00440040300100207047000085
:102670008307FF22DB0E9A408907090E9940002844
:102680000BDA0007000F0838830808489B00181869
:10269000C36993430B43C3617047830804489B009D
:1026A0001B181868904308431860704700ED00E05D
:1026B00000E400E00EB53F4C0021C943606901F021
:1026C00032FB002872D00C20205EFDF7D1FE3A4A82
:1026D0003A4BFDF765FE6163064620630E200F4608
:1026E000205EFDF7C5FE364A364BFDF759FEE16325
:1026F000A063054610200291205EFDF7B9FE324A24
:10270000324BFDF74DFE6164206401910090002280
:102710002F4B30463946FDF743FE00222D4BFDF787
:102720008DFDFDF7B9FE06B2E68000222A4B284651
:102730000299FDF735FE294F00223B46FDF77EFD4D
:10274000FDF7AAFE05B225810022254B01990098CC
:10275000FDF726FE00223B46FDF770FDFDF79CFECF
:1027600000B26081322E01DA322102E0FA2E01DD60
:10277000FA21E1802D2D01DA2D2102E0D72D01DD96
:10278000D7212181822801DA822002E0DC2801DDC4
:10279000DC20608106210120615E80074163082101
:1027A000615E81630A200F49205E08600A2000F004
:1027B000ADFD81E70000002054CC9C8944FC0E3F15
:1027C000A50F02976CE10E3FB55EC2572A5E0B3F24
:1027D0000000594000C06240004055400040604049
:1027E00000805640400000407047012000F08EFD00
:1027F000FBE7000010B5FDF781FC044601F0A0FBEB
:10280000002803D001200349000748602046FDF757
:1028100079FC10BD00ED00E010B59CB03821684691
:10282000FDF701FD142117A8FDF7FDFC24210EA8DA
:10283000FDF7F9FC154801680322D2029143C21446
:10284000891801600220009001210A900391800400
:102850000C900001102100240D900B940491684607
:10286000FEF724FD0F2017900320189019941A9456
:1028700001211B9417A8FEF7E7FB0A200E90129483
:1028800014940EA8FEF714FB1CB010BD007000409D
:1028900010480168821511430160C1680E4A114059
:1028A000C16001680D4A1140016081684908490012
:1028B000816001680122920491430160C168FD2298
:1028C00012049143C160002101610549C003886081
:1028D00070470000001002400C40FF88F6FFF6FE33
:1028E00000ED00E010B50248FEF7E1FF10BD00006A
:1028F000D001002070B5026801239B07114C124DD6
:10290000984203D0A04201D0A84203D17026B2431E
:102910004E683243984203D0A04201D0A84204D16D
:1029200003231B029A43CB681A4380239A430B6903
:102930001A4302608A68C2620968816201214161AA
:1029400070BD0000000801400014014010B5CB0626
:10295000DB0E0121046A99408C430462016A9A40AB
:102960001143016210BD30B58468FF252D021B02A2
:102970001343AC430B432343836030BD8268702311
:102980009A430A4307210A438260704730B5026ABE
:10299000520852000262026A456883697024A343A8
:1029A0009C080B68A40023430224A2438C68456062
:1029B0001443836149684163046230BD30B5026AE3
:1029C00010239A430262036A4568826973242402D1
:1029D000A2430C6824021443202293438A68456072
:1029E00012011A43846149688163026230BD30B5C7
:1029F000026AFF2301339A430262026A4568C3698F
:102A00007024A3439C080B68A400234301246402A0
:102A1000A2438C68456024021443C3614968C163C2
:102A2000046230BD30B5026A01231B039A4302627F
:102A3000036A4568C26973242402A2430C68240215
:102A400014430122520393438A68456012031A43D8
:102A5000C46149680164026230BD30B5036A046A2A
:102A60006408640004628469F025AC4312012243C7
:102A70000A24A3430B438261036230BD30B5036A6D
:102A80001024A34303628469036A0F252D031203F4
:102A9000AC432243A024A34309011943826101628C
:102AA00030BD10B5818CC90707D001684A68012381
:102AB0005B049A43836A1A434A60818C890707D56D
:102AC00001684A6801231B049A43C36A1A434A6097
:102AD000818C490707D501684A6801239B049A4302
:102AE000036B1A434A60818C090707D501684A685D
:102AF0000123DB039A43436B1A434A60818CC90666
:102B000007D50268916801231B039943836B19431E
:102B10009160818C890607D501688A6801235B036F
:102B20009A43C36B1A438A60818C490612D50368A5
:102B30005A6801210905046C8A4322435A60026CD9
:102B40008A4207D10268516803235B059943436CAD
:102B500019435160818C090607D501684A68012331
:102B6000DB04806C9A4302434A6010BDF8B500262E
:102B70000446C667FDF746FE054620680068124F0A
:102B8000000709D501212B46002249052046009760
:102B900000F030F900280DD12068006840070BD5FF
:102BA00001212B46002289052046009700F022F9DA
:102BB000002801D00320F8BD20206067A0676034A2
:102BC00026740020F8BD0000FFFFFF01F8B50446A1
:102BD0002669A268E76932436669102000253E43F2
:102BE0002368324378491E68784F3E4016431E6082
:102BF00023685A6803263603B243E66832435A60B4
:102C00002368A2698B4201D0266A32439E680B2753
:102C10003F02BE4316439E606D4E23686D4AB34229
:102C20000CD1D2689207920F06D0012A38D0022A1E
:102C300034D0032A20D11EE001201DE0664EB342AD
:102C40000AD1D2680C26324026D0042A28D0082A7D
:102C500024D00C2A10D10EE08B420DD1D66803226D
:102C60009202164018D001229202B61A18D0B61A53
:102C700014D0964200D10820564A0126403A574FB8
:102C8000F6038B4236D100280CD002280DD0042840
:102C900012D008281FD11CE00020EDE70220EBE74E
:102CA0000420E9E7FEF7A6FA08E01068C00601D59F
:102CB000384605E04A4803E0FEF7BCFA002873D026
:102CC000626851005118814205D81103814202D334
:102CD00003E03046F4E7012566E0010E06025008E5
:102CE000002330185941FDF755FA03210902411A12
:102CF0003C4A55E0E169B14232D1030000F0D7F817
:102D000009070A0D06250606062B0600E3E7FEF76F
:102D100071FA1CE0FEF77EFA19E010686168C006DF
:102D200002D54808304A01E0304A48088018FDF7CB
:102D30001BFA80B201462E4A10399142CBD8511C61
:102D400001400007400F08432CE0FEF773FA61686A
:102D500040004A08EAE76168012248081204E5E7F2
:102D6000030000F0A4F809070A0D06260606062C43
:102D70000600B0E7FEF73EFA1DE0FEF74BFA1AE058
:102D800010686168C00602D54808C01902E01448FE
:102D90004A081018FDF7E8F980B20146144A1039C4
:102DA000914298D82168C860002020666066284655
:102DB000F8BDFEF73FFA61684A088018EAE76168E3
:102DC00048088019E6E7000000480040F369FFEF7B
:102DD00000380140401002400044004000093D001E
:102DE0000024F400FFFC0F0000127A000048E80104
:102DF000EFFF0000FFB581B017460E4604460A9D5E
:102E000009E0681C07D0FDF7FDFC0499401AA842B0
:102E10000CD8002D0AD02068C1693046884318D0EC
:102E20000020B842EDD0002005B0F0BD2068016858
:102E3000FF22A1329143016020688168490849005E
:102E4000816020206067A067002060342074032028
:102E5000EAE70120E5E700000FB410B504A9074B2D
:102E600002AA039800F040F8044602A9002000F0EE
:102E7000E3F9204610BC08BC04B0184739320008FA
:102E80002021020C01D010211046020A01D0104668
:102E90000839020901D01046091F820801D01046E6
:102EA000891E420801D0881E7047081A704730B446
:102EB0007446641E2578641CAB4200D21D46635DD7
:102EC0005B00E31830BC184702E008C8121F08C1B5
:102ED000002AFAD170477047002001E001C1121F9B
:102EE000002AFBD170470000FFB58FB005460026D1
:102EF00006E025280AD0129A119990476D1C761C7D
:102F000028780028F5D1304613B0F0BD0024029493
:102F10000121B54A009400E004436D1C2B7808465B
:102F2000203B98401042F7D128782A280ED0022260
:102F3000287801463039092916D802990A235943BD
:102F40003039401814436D1C0290F1E7109802C804
:102F500002911090002904DA012040030443484202
:102F60000290022004436D1C28782E2817D10420DB
:102F7000044368786D1C2A280CD110986D1C02C877
:102F8000009110900BE000990A225143303940180B
:102F90006D1C00902878014630390929F3D928782A
:102FA0006C2810D006DC4C281AD068280ED06A286D
:102FB00017D104E0742813D07A2812D110E0012030
:102FC000400504430CE00121090501E00321090546
:102FD0000C436978814203D10120000524186D1C3F
:102FE0006D1C2878692874D006DC00288BD06328F3
:102FF00027D0642806D16CE06E2808D073282CD026
:10300000752878D0129A11999047761C5FE060027B
:10301000400F022809D003280DD004281098016819
:103020000DD00E60001D109051E01098F21701684D
:103030000E604A60F6E7109801680E80F2E70E70A5
:10304000F0E710986A4601781173001D1090002077
:10305000507303A80190012005E0109802C8019167
:1030600010900020C04361070CD5002700E07F1CB2
:1030700000998F420FDA8742F9DB0199C95D002977
:10308000F5D108E0002700E07F1C8742FCDB0199B6
:10309000C95D0029F8D102982146C01B0290129BFD
:1030A000119A00F0B3F88019C61907E00198019948
:1030B0000078491C0191129A119990477F1EF5D210
:1030C0002146129B119A029800F090F886196D1C07
:1030D00016E70A200190109901C910916102490F69
:1030E000032900D100B2042900D140B2002803DA3C
:1030F00040422D2103E00DE0210504D52B216A4635
:103100001173012103E0E10711D02021F7E70CAF93
:103110000C9114E00A200190109901C910916102EC
:10312000490F032900D180B2042900D1C0B2002187
:10313000EDE70199FDF718F830317F1E397000284E
:10314000F7D104A8C01B20300190600704D50120EE
:1031500000048443009801E0012000900199884216
:1031600001DD401A00E00020411800900C98091879
:103170000298401A0290E00306D42146129B119A4D
:10318000029800F043F8861900200D9008E003A98A
:10319000085C129A119990470D98401C761C0D906E
:1031A0000C998842F3DBE0030CD52146129B119A5F
:1031B000029800F02BF8861904E0129A3020119939
:1031C0009047761C0099481E00900029F5DC05E028
:1031D0003878129A7F1C11999047761C0199481EE5
:1031E00001900029F4DC6BE709280100F8B50446DA
:1031F00000251E461746880404D405E039462020E1
:10320000B0476D1C641EF9D52846F8BDFFB50446CD
:10321000002581B01E46C80301D5302700E02027D5
:10322000880404D505E038460399B0476D1C641E38
:10323000F9D5284605B0F0BD0A68531C0B60107024
:10324000704710B500212320FFF74AF947212020BD
:10325000FFF746F910BD000090B0FDF7BDFDFFF788
:10326000DBFAFFF74DF9FFF79DF9FFF77BF9FFF761
:10327000E5F900211F48FEF768FC04211D48FEF710
:1032800064FC0C211B48FEF760FCFFF7DAFF00F03E
:103290002FFC03220021012000F064FC164C0028C2
:1032A000606104D000231A46194600F0B0FC1422D5
:1032B00012496846FCF79EFF0021684600F033F88B
:1032C0000E49A0611422143105A8FCF793FF0021D8
:1032D00005A800F028F80949E061142228310AA85D
:1032E000FCF788FF00210AA800F01DF8206200F01A
:1032F00015F8FEE7F400002000000020EC41000873
:1033000001460020842900D0C81C704710B5002851
:1033100000D1012000F0F4FA002010BD10B500F03B
:103320008DFB002010BD3EB5044608200D46205EF2
:10333000FFF7E6FF02A901910090208A2B4682B296
:103340002168606800F0BEFD012801D000203EBD6C
:1033500002983EBDF8B5134C0F46666905462068D5
:10336000001D00F03FFA681C07D1002F05D021682E
:103370000D48091D00F06FFAF8BD20687519456009
:103380002168B54204D2A068091D00F04CFAF8BDCE
:103390006068091D00F047FA206B8542F7D225636B
:1033A000F8BD000050000020E8020020F8B50546F6
:1033B00000F05EFA294C2069401C20612068284FEB
:1033C000002803D0E069002827D02CE02560206980
:1033D000012828D1002614207043C01900F015FAE6
:1033E000761C072EF7D31E488C3000F00EFA1C48CE
:1033F000A03000F00AFA1A48B43000F006FA184873
:10340000C83000F002FA1648DC3000F0FEF914482B
:103410008C3060601430A06005E02068E96AC06A02
:10342000884200D82560E06A401CE062E86AA16931
:10343000884200D9A06114214843C019291D00F019
:103440000AFA00F021FAE069002806D02068E96A4B
:10345000C06A884201D200F047FAF8BD500000204F
:103460000C020020F8B5856B174604460026026C56
:10347000002A11D0002F19D0E068FCF7BBFEE168EC
:10348000206C091AE1602268914202D26168081A30
:10349000E060022F17D019E02068002816D160687C
:1034A00000F0ACFD0646002060600FE0A068FCF76D
:1034B000A1FE216CA0684018A0606168884205D315
:1034C0002068A06002E0002D00D06D1E6D1CA56379
:1034D0003046F8BD10B50446006B00F0E3F9204615
:1034E00000F0E0F910BD000003210E4889024207F8
:1034F00005D0C01DC0080B4AC000821A891A0A4AAA
:103500000023411809C20839C908C900183A1160D6
:103510004B600B600B1A0AC093600120C007536018
:10352000D0607047FC0200209C0000200F4E104C21
:103530003746C83F11E000F09BF9F068C568281DC8
:1035400000F050F92069401E2061E068401EE060F4
:1035500000F09AF92846FFF7BDFFE0680028EAD19D
:1035600038680128F9D900F0BFF9F6E7D402002045
:1035700050000020FFB581B00C9C9000236B001F11
:103580001818C6080A9DF600700701D072B6FEE74B
:1035900023180A5C20331A750A5C002A02D0401CEA
:1035A0001028F5D32046403000270090C770072D23
:1035B00000D30625E562A764201D656400F030F99C
:1035C0002046183000F02CF924610720401B64626B
:1035D000A061E764009807743046049A019900F0EE
:1035E000F1F820600B98002800D0046005B0F0BD11
:1035F00030B5114900E011460A688242FBD34B689E
:103600005C18844203D14068181848600846436833
:103610001C18944209D1084C103C2468A24209D0DD
:1036200052689A1842600A6812680260814200D0AB
:10363000086030BD0460F9E79C00002010B5044626
:1036400000F016F9A06B002804D0002400F01CF94B
:10365000204610BD0124F9E70648416809680029A1
:1036600005D04168C968C96849680163704700218D
:10367000C943FAE75000002003480068401C72B6B6
:1036800000D0FEE7FEE70000A4000020F8B50446E5
:1036900000F0EEF8254640350526AE57274624377C
:1036A0000BE0606A00280AD0384600F017FD0028B9
:1036B00001D000F073F9761E76B2002EF1DC0027FF
:1036C000FF436F7100F0E0F800F0D2F80426AE5727
:1036D0002046103000900BE0206900280AD00098A6
:1036E00000F0FCFC002801D000F058F9761E76B2FC
:1036F000002EF1DC2F7100F0C7F8F8BDF8B50546D3
:10370000002700F0C1F9284E3068002801D1FFF7EA
:10371000EBFEF06805423FD1002D3DD0083568072B
:1037200008D06807400F0821081A4519680701D01A
:1037300072B6FEE7002D2FD0706885422CD81A484B
:10374000103001460C6801E020460C466168A94231
:1037500002D221680029F7D131688C421CD0076859
:103760002168016060680837411B102908D9601979
:10377000420701D072B6FEE741606560FFF738FF8F
:1037800061687068401A7060B268904200D2B060A0
:10379000F0680143002003C400F0D2FC780701D098
:1037A00072B6FEE73846F8BD8C0000200449086870
:1037B000002803D00868826C521C82640868704735
:1037C0005000002010B50124031F24061C601B1F9D
:1037D0001960191F024B0B60143940380A6010BD84
:1037E000793600084368826801699A608368426894
:1037F0005A604A68824201D182684A6000220261AE
:103800000868401E086008687047014608310022B9
:103810004160D243C1608260016100210160704754
:1038200000210161704730B50B685A1C02D0024676
:10383000083202E0026904E02246546825689D428D
:10384000FAD953684B6099608A60516008610168D9
:10385000491C016030BD42684A6093688B60936880
:103860005960916008610168491C0160704700005F
:1038700072B604480168491C0160BFF34F8FBFF363
:103880006F8F7047A400002005490868002804D005
:10389000401E086000D162B6704772B6FEE70000B5
:1038A000A400002070B500281AD004460D4D083C35
:1038B0006068E968084201D172B6FEE72268002A12
:1038C00001D072B6FEE78843606000F0DDF8606802
:1038D0006968401868602046FFF78AFE00F030FCF7
:1038E00070BD00008C0000200120044900074860E2
:1038F000BFF34F8FBFF36F8F7047000000ED00E004
:1039000010B502000FD00948806B002801D072B6B4
:10391000FEE700F0B9F800211046FFF71BFD00F0AC
:103920000FFC002801D1FFF7DFFF10BD5000002081
:1039300070B50D46040007D0002D07D0124A906BD9
:10394000002805D072B6FEE772B6FEE772B6FEE753
:1039500000F09AF8526923685919934204D98B42AE
:103960000AD9914202D807E08B42FAD9881A21601D
:103970000021FFF7EFFC00E0216000F0E1FB0028F0
:1039800001D1FFF7B1FF70BD5000002002498A6AE3
:1039900002604969416070475000002001490120E0
:1039A000486270475000002010B50C46002809D02E
:1039B000054909681831FFF736FF01212046FFF756
:1039C000C9FC10BD72B6FEE75000002070B50400BF
:1039D0002FD0A26C002A0ED0606C884200D3014622
:1039E000E06A884225D0012A23D1124D2A689442E8
:1039F00003D172B6FEE772B6FEE7E162A269002A61
:103A000002DB0722511AA16114220B4E5043616957
:103A1000801981420DD1201DFFF7E4FEE06AA969FB
:103A2000884200D9A861142148438019211DFFF75D
:103A300012FF70BD500000200C0200201CB50E4883
:103A400000240190234680220CA100940D4800F030
:103A500039FA012803D0401C0CD172B6FEE772B6C9
:103A600000210548C943343801630121C161446123
:103A700000F050F81CBD00008400002049444C4573
:103A8000000000002D3500080248816B491C81634D
:103A9000704700005000002010B51348816B0029CA
:103AA00002D00121416210BD0021416281690F4AAB
:103AB00002E0002915D0491E14234B43D358002B94
:103AC000F7D014234B439A18536814465B680834A4
:103AD0005360A34201D15B685360DA680260816180
:103AE00010BD72B6FEE70000500000200C0200205E
:103AF00010B564230A2232210548FCF767FF00282D
:103B000004D1052020210007FCF772FE10BD000043
:103B1000A800002070B50F48016AFF22120411436B
:103B20000162016A1202114301620B4C00252561FA
:103B3000A5610A487D21C9000068FCF715FB401EFD
:103B400060610720206106480560FCF7C3FA002089
:103B500070BD000000ED00E000E000E04C0000203F
:103B6000A400002070B50E46050014D0002E14D01D
:103B700070434830FFF7C2FD04000AD021464831A7
:103B80002046002E0BD0016006640121C56300F0C1
:103B900008F8204670BD72B6FEE70020E9E7006035
:103BA000F2E770B50D46040025D0FFF761FE216CE9
:103BB000E06B48432168411861600021A1632168DE
:103BC000A160E06B216C401E484321684118E16010
:103BD0000021C94320464030017141713038002D29
:103BE0000BD0FFF712FE20462430FFF70EFEFFF742
:103BF0004BFE012070BD72B6FEE721690029F6D0A8
:103C000000F06CFA0028F2D0FFF76EFEEFE7FFB588
:103C1000002683B01D46040003D00498002802D07B
:103C200006E072B6FEE7206C002801D072B6FEE70F
:103C3000022D04D1E06B012801D072B6FEE700F03E
:103C400069F90027002804D10598002801D072B630
:103C5000FEE7FFF70DFEA06BE16B884207D3022D54
:103C600005D00598002817D0002E18D01BE02A4652
:103C700020460499FFF7F6FB616A002903D020462D
:103C8000243000F02BFA002801D0FFF72DFEFFF7BB
:103C9000FBFD012007B0F0BDFFF7F6FD22E068460E
:103CA000FFF774FE0126FFF7EFFDFFF7EDFEFFF7CC
:103CB000DFFD2046403004214156491C00D10771E8
:103CC00005214156491C00D14771FFF7DDFD05A9CB
:103CD000684600F0C9F8002806D02046FFF7D6FC59
:103CE00000F02EFA0020D5E7FFF7C2FDA06BE16BD4
:103CF000884210D1FFF7C8FD204610300599FFF724
:103D000053FE2046FFF7C2FC00F01AFA0028A0D1AB
:103D1000FFF7EAFD9DE7FFF7B7FD2046FFF7B6FC8A
:103D200000F00EFA95E7F3B5002683B0041E354681
:103D300004D0206C002803D072B6FEE772B6FEE70E
:103D400000F0E8F80027002804D10498002801D0EA
:103D500072B6FEE7FFF78CFDA06B002817D0401E5F
:103D6000A0632068002802D1FFF720FD6060206971
:103D7000002807D02046103000F0B0F9002801D00C
:103D8000FFF7B2FDFFF780FD012005B0F0BD0498FC
:103D9000002802D0002E07D00AE0002D01D072B614
:103DA000FEE7FFF771FD5CE06846FFF7EFFD0126D7
:103DB000FFF76AFDFFF768FEFFF75AFD2046403027
:103DC00004214156491C00D1077105214156491C67
:103DD00000D14771FFF758FD04A9684600F044F888
:103DE0000028204614D0FFF751FC00F0A9F9204626
:103DF000FFF724FC0028ADD0002D32D0FFF738FDAE
:103E0000606A002828D0206B07210068091A24E086
:103E1000FFF714FC002819D02068002807D1FFF70D
:103E200027FD606800F01EF90546FFF72DFD2046CE
:103E300024300499FFF7B8FD2046FFF727FC00F077
:103E40007FF9002886D1FFF74FFD83E72046FFF773
:103E50001DFC00F075F97DE700216068FFF7B6FDF5
:103E60009FE7002091E70000F8B50C46050012D04E
:103E7000002C12D0FFF7FCFC114B5A696E682068C9
:103E8000911B471C0BD02F689B6A9F420CD0964217
:103E90000AD8012404E072B6FEE772B6FEE70024F9
:103EA000FFF7F2FC2046F8BD884205D9401A206091
:103EB0002846FFF76BFDF2E700202060E9E70000ED
:103EC00050000020FFB585B0164690000F9FFFF709
:103ED00015FC05001AD05420FFF710FC040012D086
:103EE000256300210E9803910197009002943246B9
:103EF000089B06990598FFF73DFB2046FFF756FA09
:103F0000012009B0F0BD2846FFF7CCFC0020C043DB
:103F1000F7E700000648C169002904D0806B00283B
:103F200003D0002070470120704702207047000036
:103F300050000020014840697047000050000020F8
:103F4000F8B52C4C0027A06B002808D0206A401C34
:103F50002062606A002800D001273846F8BD6669F3
:103F6000761C66610ED160680068002801D072B6C8
:103F7000FEE76068A1686160A060A06A401CA06262
:103F8000FFF76AFB206B86420AD36068006800284E
:103F900010D06068C068C568686886420DD220632A
:103FA00020681421C06A4843134908580128D0D911
:103FB0000127CEE70020C043F1E7281DFFF712FCE0
:103FC000A86A002803D028461830FFF70BFCE86ADF
:103FD000A169884200D9A0611421484306494018CC
:103FE000291DFFF738FCE86A2168C96A8842CCD3EA
:103FF0000127CAE7500000200C02002070B5002104
:104000000446002828D0154D2868844201D072B695
:10401000FEE7A06C002808D0401EA064636CE26A32
:104020009A4219D0002802D016E072B6FEE7201D91
:10403000FFF7D8FB606C0721E062081AA061E06A14
:10404000A969884200D9A86114214843044940184D
:10405000211DFFF700FC0121084670BD5000002023
:104060000C02002070B504460020002C2AD0194D07
:10407000E16A2A68D26A914225D2A069002804DB4D
:1040800028680721C06A081AA061E06A1422124E4B
:10409000504361698019814210D1201DFFF7A2FBB6
:1040A0002868C06AE062A969884200D9A861142121
:1040B00048438019211DFFF7CEFB02E02868C06A43
:1040C000E062012070BD616C2A68D26A9142F8D327
:1040D00070BD0000500000200C02002070B5C068C8
:1040E000C468002C0BD0204618300646FFF77AFB38
:1040F000114DA86B002804D0314610480FE072B66D
:10410000FEE7201DFFF76EFBE06AA969884200D92F
:10411000A861142148430949B4394018211DFFF70B
:104120009AFBE06A2968C96A884202D9012068625C
:1041300070BD002070BD000050000020C0020020B3
:10414000F8B5284C0025A06B2E46002808D0FFF7B4
:104150008FFBA06B401EA063A06B002802D03DE047
:1041600072B6FEE72169204F00291DD136E0F868BC
:10417000C56828461830FFF735FB281DFFF732FBCE
:10418000E86AA169884200D9A06114214843164910
:10419000B4394018291DFFF75EFBE86A2168C96A37
:1041A000884201D30120606238680028DFD1002DE9
:1041B00001D0FFF751FA256A002D09D00127FFF73A
:1041C000BFFE002800D067626D1EF8D1002020627B
:1041D000606A002802D00126FFF786FBFFF754FB38
:1041E0003046F8BD50000020C002002060420008A8
:1041F000EB27000800000000000000008000000025
:1042000058420008D9230008010000000000000007
:10421000800000004C420008B526000802000000A3
:10422000000000008000000000000000000000000E
:104230000102030406070809030406080C101820ED
:1042400030000000000102030400000050574D43FD
:104250004F4E54524F4C0000493243554152540086
:1042600064656661756C745461736B008C42000800
:1042700000000020A8000000C82E000834430008F9
:10428000A800002058120000D82E000800000000EE
:104290000000960082008200000000000000000084
:1042A000000000000000000000000000000000000E
:1042B00000000000000000000000000000000000FE
:1042C00000000000000000000000000000000000EE
:1042D00000000000000000000000200000000000BE
:1042E00000000000000000000000000000000000CE
:1042F00000000000000000000000000000000000BE
:1043000000000000000000000000000000000000AD
:10431000000000000000000000000000000000009D
:10432000000000000000000000000000000000008D
:04433000AAAAAAAAE1
:04000005080000C12E
:00000001FF
